{
  "_format": "hh-sol-artifact-1",
  "contractName": "Report",
  "sourceName": "contracts/Report.sol",
  "abi": [
    {
      "inputs": [],
      "name": "LoginAsAdmin",
      "outputs": [
        {
          "internalType": "bool",
          "name": "",
          "type": "bool"
        }
      ],
      "stateMutability": "view",
      "type": "function"
    },
    {
      "inputs": [
        {
          "internalType": "string",
          "name": "_crops",
          "type": "string"
        },
        {
          "internalType": "string",
          "name": "_state",
          "type": "string"
        },
        {
          "internalType": "uint256",
          "name": "_price",
          "type": "uint256"
        },
        {
          "internalType": "uint256",
          "name": "_quantity",
          "type": "uint256"
        },
        {
          "internalType": "string",
          "name": "_terms",
          "type": "string"
        },
        {
          "internalType": "uint256",
          "name": "_payment",
          "type": "uint256"
        }
      ],
      "name": "ReportCrime",
      "outputs": [],
      "stateMutability": "nonpayable",
      "type": "function"
    },
    {
      "inputs": [],
      "name": "viewReports",
      "outputs": [
        {
          "components": [
            {
              "internalType": "uint256",
              "name": "timestamp",
              "type": "uint256"
            },
            {
              "internalType": "string",
              "name": "crops",
              "type": "string"
            },
            {
              "internalType": "string",
              "name": "state",
              "type": "string"
            },
            {
              "internalType": "uint256",
              "name": "price",
              "type": "uint256"
            },
            {
              "internalType": "uint256",
              "name": "quantity",
              "type": "uint256"
            },
            {
              "internalType": "string",
              "name": "terms",
              "type": "string"
            },
            {
              "internalType": "uint256",
              "name": "payment",
              "type": "uint256"
            }
          ],
          "internalType": "struct Report.report[]",
          "name": "",
          "type": "tuple[]"
        }
      ],
      "stateMutability": "view",
      "type": "function"
    }
  ],
  "bytecode": "0x6080604052604051806020016040528073cab9b57a22a721f45af5f002a40fb6818c20346973ffffffffffffffffffffffffffffffffffffffff1673ffffffffffffffffffffffffffffffffffffffff168152506001906001610063929190610075565b5034801561006f575f80fd5b5061010c565b82600281019282156100e0579160200282015b828111156100df578251825f6101000a81548173ffffffffffffffffffffffffffffffffffffffff021916908373ffffffffffffffffffffffffffffffffffffffff16021790555091602001919060010190610088565b5b5090506100ed91906100f1565b5090565b5b80821115610108575f815f9055506001016100f2565b5090565b610d55806101195f395ff3fe608060405234801561000f575f80fd5b506004361061003f575f3560e01c806312beb00f14610043578063446e35ba146100615780638392c50f1461007d575b5f80fd5b61004b61009b565b60405161005891906106a6565b60405180910390f35b61007b6004803603810190610076919061082d565b6102cd565b005b610085610407565b6040516100929190610924565b60405180910390f35b60605f805480602002602001604051908101604052809291908181526020015f905b828210156102c4578382905f5260205f2090600702016040518060e00160405290815f82015481526020016001820180546100f79061096a565b80601f01602080910402602001604051908101604052809291908181526020018280546101239061096a565b801561016e5780601f106101455761010080835404028352916020019161016e565b820191905f5260205f20905b81548152906001019060200180831161015157829003601f168201915b505050505081526020016002820180546101879061096a565b80601f01602080910402602001604051908101604052809291908181526020018280546101b39061096a565b80156101fe5780601f106101d5576101008083540402835291602001916101fe565b820191905f5260205f20905b8154815290600101906020018083116101e157829003601f168201915b50505050508152602001600382015481526020016004820154815260200160058201805461022b9061096a565b80601f01602080910402602001604051908101604052809291908181526020018280546102579061096a565b80156102a25780601f10610279576101008083540402835291602001916102a2565b820191905f5260205f20905b81548152906001019060200180831161028557829003601f168201915b50505050508152602001600682015481525050815260200190600101906100bd565b50505050905090565b5f73ffffffffffffffffffffffffffffffffffffffff163373ffffffffffffffffffffffffffffffffffffffff160361033b576040517f08c379a0000000000000000000000000000000000000000000000000000000008152600401610332906109f4565b60405180910390fd5b5f6040518060e0016040528042815260200188815260200187815260200186815260200185815260200184815260200183815250908060018154018082558091505060019003905f5260205f2090600702015f909190919091505f820151815f015560208201518160010190816103b29190610baf565b5060408201518160020190816103c89190610baf565b50606082015181600301556080820151816004015560a08201518160050190816103f29190610baf565b5060c082015181600601555050505050505050565b5f805f90505b600281101561049a573373ffffffffffffffffffffffffffffffffffffffff166001826002811061044157610440610c7e565b5b015f9054906101000a900473ffffffffffffffffffffffffffffffffffffffff1673ffffffffffffffffffffffffffffffffffffffff160361048757600191505061049f565b808061049290610cd8565b91505061040d565b505f90505b90565b5f81519050919050565b5f82825260208201905092915050565b5f819050602082019050919050565b5f819050919050565b6104dd816104cb565b82525050565b5f81519050919050565b5f82825260208201905092915050565b5f5b8381101561051a5780820151818401526020810190506104ff565b5f8484015250505050565b5f601f19601f8301169050919050565b5f61053f826104e3565b61054981856104ed565b93506105598185602086016104fd565b61056281610525565b840191505092915050565b5f60e083015f8301516105825f8601826104d4565b506020830151848203602086015261059a8282610535565b915050604083015184820360408601526105b48282610535565b91505060608301516105c960608601826104d4565b5060808301516105dc60808601826104d4565b5060a083015184820360a08601526105f48282610535565b91505060c083015161060960c08601826104d4565b508091505092915050565b5f61061f838361056d565b905092915050565b5f602082019050919050565b5f61063d826104a2565b61064781856104ac565b935083602082028501610659856104bc565b805f5b8581101561069457848403895281516106758582610614565b945061068083610627565b925060208a0199505060018101905061065c565b50829750879550505050505092915050565b5f6020820190508181035f8301526106be8184610633565b905092915050565b5f604051905090565b5f80fd5b5f80fd5b5f80fd5b5f80fd5b7f4e487b71000000000000000000000000000000000000000000000000000000005f52604160045260245ffd5b61071582610525565b810181811067ffffffffffffffff82111715610734576107336106df565b5b80604052505050565b5f6107466106c6565b9050610752828261070c565b919050565b5f67ffffffffffffffff821115610771576107706106df565b5b61077a82610525565b9050602081019050919050565b828183375f83830152505050565b5f6107a76107a284610757565b61073d565b9050828152602081018484840111156107c3576107c26106db565b5b6107ce848285610787565b509392505050565b5f82601f8301126107ea576107e96106d7565b5b81356107fa848260208601610795565b91505092915050565b61080c816104cb565b8114610816575f80fd5b50565b5f8135905061082781610803565b92915050565b5f805f805f8060c08789031215610847576108466106cf565b5b5f87013567ffffffffffffffff811115610864576108636106d3565b5b61087089828a016107d6565b965050602087013567ffffffffffffffff811115610891576108906106d3565b5b61089d89828a016107d6565b95505060406108ae89828a01610819565b94505060606108bf89828a01610819565b935050608087013567ffffffffffffffff8111156108e0576108df6106d3565b5b6108ec89828a016107d6565b92505060a06108fd89828a01610819565b9150509295509295509295565b5f8115159050919050565b61091e8161090a565b82525050565b5f6020820190506109375f830184610915565b92915050565b7f4e487b71000000000000000000000000000000000000000000000000000000005f52602260045260245ffd5b5f600282049050600182168061098157607f821691505b6020821081036109945761099361093d565b5b50919050565b5f82825260208201905092915050565b7f496e76616c6964204164647265737300000000000000000000000000000000005f82015250565b5f6109de600f8361099a565b91506109e9826109aa565b602082019050919050565b5f6020820190508181035f830152610a0b816109d2565b9050919050565b5f819050815f5260205f209050919050565b5f6020601f8301049050919050565b5f82821b905092915050565b5f60088302610a6e7fffffffffffffffffffffffffffffffffffffffffffffffffffffffffffffffff82610a33565b610a788683610a33565b95508019841693508086168417925050509392505050565b5f819050919050565b5f610ab3610aae610aa9846104cb565b610a90565b6104cb565b9050919050565b5f819050919050565b610acc83610a99565b610ae0610ad882610aba565b848454610a3f565b825550505050565b5f90565b610af4610ae8565b610aff818484610ac3565b505050565b5b81811015610b2257610b175f82610aec565b600181019050610b05565b5050565b601f821115610b6757610b3881610a12565b610b4184610a24565b81016020851015610b50578190505b610b64610b5c85610a24565b830182610b04565b50505b505050565b5f82821c905092915050565b5f610b875f1984600802610b6c565b1980831691505092915050565b5f610b9f8383610b78565b9150826002028217905092915050565b610bb8826104e3565b67ffffffffffffffff811115610bd157610bd06106df565b5b610bdb825461096a565b610be6828285610b26565b5f60209050601f831160018114610c17575f8415610c05578287015190505b610c0f8582610b94565b865550610c76565b601f198416610c2586610a12565b5f5b82811015610c4c57848901518255600182019150602085019450602081019050610c27565b86831015610c695784890151610c65601f891682610b78565b8355505b6001600288020188555050505b505050505050565b7f4e487b71000000000000000000000000000000000000000000000000000000005f52603260045260245ffd5b7f4e487b71000000000000000000000000000000000000000000000000000000005f52601160045260245ffd5b5f610ce2826104cb565b91507fffffffffffffffffffffffffffffffffffffffffffffffffffffffffffffffff8203610d1457610d13610cab565b5b60018201905091905056fea264697066735822122084f542e78627a7febfeb06b29fd56e5b2656b8b8e31b8e2174063849e4facf3564736f6c63430008140033",
  "linkReferences": {},
  "deployedLinkReferences": {}
}